:100000000C9429010C9451010C9451010C94510150
:100010000C9451010C9451010C9451010C94510118
:100020000C9451010C9451010C94FF070C94AA06F6
:100030000C9451010C9451010C9451010C945101F8
:100040000C9451010C9451010C9451010C945101E8
:100050000C9451010C9451010C9451010C942A02FE
:100060000C9451010C9451010C9451010C945101C8
:100070000C9451010C9451010C9451010C945101B8
:100080000C9451010C9451010C9451010C945101A8
:100090000C9451010C9451010C9451010C94510198
:1000A0000C9451010C9451010C9451016A036D039D
:1000B0005C03600366038E038E038E037103750376
:1000C00079037F0383038E03890307060504010078
:1000D000080A0B0C0D090000000200090F000003C4
:1000E0000401000C000000000000000000000000FF
:1000F00000000000040802011040804010204080F1
:10010000408008020401804020100201108010206D
:100110004040040404040403040502020202040330
:100120000202020206060606060604040202020491
:10013000000000002300260029002C002F000000F2
:100140000000250028002B002E00310000000000D8
:10015000240027002A002D003000090402000103BA
:10016000000000092101010001225000070584035D
:1001700040000105010904A10185060509190129AD
:1001800020150025017501952081020501A10009B6
:100190003009310933093416008026FF7F75109528
:1001A000048102093209351580257F750895028181
:1001B00002C00501093909391501250895027504A0
:1001C0008102C000C18081C1120100020000004014
:1001D0004123368000010102000112010002EF02FA
:1001E0000140412336800001010200014172647523
:1001F000696E6F204C4C430041726475696E6F20CC
:100200004C656F6E6172646F0004030904080B0093
:10021000020202010009040000010202000005249C
:100220000010010524010101042402060524060032
:10023000010705810310004009040100020A0000C3
:10024000000705020240000007058302400000008D
:10025000570911241FBECFEFDAE0DEBFCDBF11E09A
:10026000A0E0B1E0E8EFF2E102C005900D92AC3100
:10027000B107D9F721E0ACE1B1E001C01D92A3398B
:10028000B207E1F712E0C2E5D2E004C02297FE0116
:100290000E947609C035D107C9F70E9428040C9442
:1002A0007A090C940000CF938FE0E9E2F1E0DF01DE
:1002B0001D928A95E9F74FE050E0BF0186E00E9469
:1002C0004D04C0E060E08C2F0E948F0361E08C2F12
:1002D0000E94C803CF5FC031A9F7CF910895CF9294
:1002E000DF92EF92FF92CF93DF930E947402C0904F
:1002F0001C01D0901D01E0901E01F0901F019B0198
:10030000AC012C193D094E095F0969017A0132E3FC
:10031000C316D104E104F10408F495C060931C01F4
:1003200070931D0180931E0190931F018FE0E9E2FD
:10033000F1E0DF011D928A95E9F7C0E0D0E0C12C21
:10034000D12C7601C3948C2F0E94FE03892BF1F4EB
:10035000D701C6010C2E04C0880F991FAA1FBB1F0E
:100360000A94D2F74091290150912A0160912B0102
:1003700070912C01842B952BA62BB72B80932901F0
:1003800090932A01A0932B01B0932C012196C031A8
:10039000D105C9F680E00E94210366E0880F991F0D
:1003A0006A95E1F7905890932E0180932D0181E09A
:1003B0000E94210376E0880F991F7A95E1F7905803
:1003C0009093300180932F0182E00E94210397FDDA
:1003D00003969595879595958795805880933501D7
:1003E00083E00E94210346E0880F991F4A95E1F7B8
:1003F0009058909332018093310184E00E94210350
:1004000056E0880F991F5A95E1F790589093340160
:100410008093330185E00E94210397FD0396959513
:100420008795959587958058809336014FE050E0E9
:1004300069E271E086E0DF91CF91FF90EF90DF906D
:10044000CF900C944D04DF91CF91FF90EF90DF900F
:10045000CF9008951F920F920FB60F9211242F93F1
:100460003F938F939F93AF93BF938091210190917E
:100470002201A0912301B09124013091200123E0B9
:10048000230F2D3720F40196A11DB11D05C026E8CC
:10049000230F0296A11DB11D2093200180932101FD
:1004A00090932201A0932301B09324018091250110
:1004B00090912601A0912701B09128010196A11DDC
:1004C000B11D8093250190932601A0932701B0933D
:1004D0002801BF91AF919F918F913F912F910F90E4
:1004E0000FBE0F901F9018952FB7F89460912101BF
:1004F0007091220180912301909124012FBF0895D2
:100500003FB7F8948091250190912601A091270191
:10051000B091280126B5A89B05C02F3F19F0019680
:10052000A11DB11D3FBF6627782F892F9A2F620F1B
:10053000711D811D911D42E0660F771F881F991F55
:100540004A95D1F70895CF92DF92EF92FF92CF9321
:10055000DF936B017C010E948002EB01C114D10486
:10056000E104F10489F00E9493080E9480026C1B50
:100570007D0B683E734090F381E0C81AD108E10812
:10058000F108C851DC4FEACFDF91CF91FF90EF9097
:10059000DF90CF900895789484B5826084BD84B54F
:1005A000816084BD85B5826085BD85B5816085BD6E
:1005B000EEE6F0E0808181608083E1E8F0E0108287
:1005C000808182608083808181608083E0E8F0E0C8
:1005D000808181608083E1E9F0E0808182608083B6
:1005E000808181608083E0E9F0E0808181608083A8
:1005F000E1ECF0E080818460808380818260808390
:10060000808181608083E3ECF0E080818160808381
:10061000E0ECF0E0808182608083E2ECF0E08081B9
:1006200081608083EAE7F0E080818460808380815C
:100630008260808380818160808380818068808304
:100640000895823108F08251E82FF0E0E653FF4F21
:10065000E49180917B00E3FB222720F930E095E0D4
:10066000220F331F9A95E1F78F7D822B80937B00B9
:10067000E7708091000120E4829FC0011124E82BE3
:10068000E0937C0080917A00806480937A0080916E
:100690007A0086FDFCCF809178002091790090E06F
:1006A000922B089590E0FC013197EF30F105B0F501
:1006B000EA5AFF4F0C947409809180008F7703C031
:1006C000809180008F7D80938000089580918000CC
:1006D000877FF9CF84B58F7702C084B58F7D84BDC5
:1006E0000895809190008F7707C0809190008F7D52
:1006F00003C080919000877F80939000089580913F
:10070000C0008F7703C08091C0008F7D8093C000B0
:1007100008958091C200877F8093C2000895CF938F
:10072000DF9390E0FC01EC50FF4F2491FC01EE5E62
:10073000FE4F8491882349F190E0880F991FFC01B6
:10074000E45BFE4FA591B491825C9E4FFC01C59184
:10075000D4919FB7611108C0F8948C9120958223A1
:100760008C93888182230AC0623051F4F8948C9172
:10077000322F309583238C938881822B888304C009
:10078000F8948C91822B8C939FBFDF91CF91089529
:100790000F931F93CF93DF931F92CDB7DEB7282F10
:1007A00030E0F901EA52FF4F8491F901EC50FF4F1C
:1007B0001491F901EE5EFE4F04910023C9F08823E5
:1007C00021F069830E9452036981E02FF0E0EE0F6F
:1007D000FF1FE25CFE4FA591B4919FB7F8948C91F6
:1007E000611103C01095812301C0812B8C939FBFA1
:1007F0000F90DF91CF911F910F910895CF93DF93C9
:10080000282F30E0F901EA52FF4F8491F901EC50B2
:10081000FF4FD491F901EE5EFE4FC491CC2391F0CD
:1008200081110E945203EC2FF0E0EE0FFF1FE05DFC
:10083000FE4FA591B4912C912D2381E090E021F4FD
:1008400080E002C080E090E0DF91CF9108950895AC
:100850000E94CB020E94270488E391E00E94800856
:100860000E945301C0E0D0E00E946F012097E1F3A5
:100870000E940000F9CFFC0120812F5F208349E115
:1008800050E06AE571E080E80C944B0640E550E0EA
:1008900063E771E080E80C944B06EF92FF920F93B0
:1008A0001F93CF93DF931F92CDB7DEB789838B0160
:1008B0007A0141E050E0BE016F5F7F4F84E00E940B
:1008C000B005A701B80184E40E94B0050F90DF9144
:1008D000CF911F910F91FF90EF900895FC019181AE
:1008E0008081813A31F481E0913091F0933089F444
:1008F00011C0813271F49B3021F482818093020116
:1009000005C09A3031F482818093010181E008951D
:10091000089580E00895615030F02091F100FC01CD
:1009200020830196F8CF289884E6809341010895AA
:1009300040913C0150913D0120913A0130913B01A1
:1009400042175307B4F49091E8009570E1F3909149
:10095000E80092FD19C08093F10080913C019091D4
:100960003D0101968F739927892B19F48EEF80939F
:10097000E80080913C0190913D01019690933D01EA
:1009800080933C0181E0089580E00895CF92DF924A
:10099000FF920F931F93CF93DF931F92CDB7DEB7D4
:1009A000082F162F862F880F8E5F99830E94980438
:1009B00083E00E949804F02EC02E9981D92E8C2DB0
:1009C0008F19811778F4F60184910E949804082FFA
:1009D00080E00E9498048023FFEFCF1ADF0A811184
:1009E000EECF01C081E00F90DF91CF911F910F9169
:1009F000FF90DF90CF9008958091D7008160809321
:100A0000D70080EA8093D80089B5806189BD89B517
:100A1000826089BD09B400FEFDCF61E070E080E036
:100A200090E00E94A3028091D8008F7C8061809327
:100A3000D8008091E000807F8093E00008952FB778
:100A4000FC012083F89467706093E9000895CF93C8
:100A5000DF931F92CDB7DEB7682FCE0101960E94BB
:100A60001F058091F20099819FBF0F90DF91CF9178
:100A70000895FF920F931F93CF93DF9300D0CDB7CC
:100A8000DEB7F62E8A0190914001992311F057FFAD
:100A900003C08FEF9FEF2BC0682FCE0101967A83A2
:100AA0000E941F058091F20090E0A8017A818017D2
:100AB00091070CF4AC01EF2DF72FF40E84E6FE162F
:100AC00039F02898809341019091F1009193F7CFEC
:100AD0004115510521F08091F200882321F0898190
:100AE0008FBFCA0104C08BE68093E800F8CF0F9057
:100AF0000F90DF91CF911F910F91FF900895CF93A9
:100B0000DF931F92CDB7DEB741E050E0BE016F5FCB
:100B10007F4F0E943905019719F4898190E002C046
:100B20008FEF9FEF0F90DF91CF910895CF93DF93D9
:100B30001F92CDB7DEB7682FCE0101960E941F0528
:100B40009091E800892F807295FF04C09091F20087
:100B500080E4891B99819FBF0F90DF91CF91089509
:100B60006F927F928F929F92AF92BF92CF92DF92BD
:100B7000EF92FF920F931F93CF93DF931F92CDB706
:100B8000DEB7782E7B01C42EB52E809140018823DC
:100B900069F0042F152F8AEFD82E872D8072982E9A
:100BA0009AE3A92E872D8074882E11C08FEF9FEFB6
:100BB00057C0872D0E949605682E81110CC0DA94CB
:100BC000A9F361E070E080E090E00E94A3020115CB
:100BD000110579F73BC0282F30E0021713070CF4FA
:100BE000602E672DCE0101960E941F058091E800BE
:100BF00085FF29C0262D30E0021B130B992039F008
:100C00006A948FEF6816B1F01092F100F9CFF701F6
:100C1000862D77FE07C0815058F094919093F10093
:100C20003196F9CF815020F091919093F100FACF55
:100C3000E20EF31E8091E80085FF0FC0011511053B
:100C400011F481100AC089818FBFC1CF5D9884E6FD
:100C5000809342018C2D9B2D03C0A092E800F3CF1E
:100C60000F90DF91CF911F910F91FF90EF90DF9048
:100C7000CF90BF90AF909F908F907F906F9008958E
:100C80001092E90010923D0110923C0190933B01BB
:100C900080933A010895CF92DF92FF920F931F93B2
:100CA000CF93DF9300D0CDB7DEB7F82E8A016B016A
:100CB00001151105B1F0F601F7FE02C0849101C0E3
:100CC000808149835A830E94980401501109FFEFE3
:100CD000CF1ADF0A49815A818111EACF8FEF9FEF46
:100CE00001C0CA010F900F90DF91CF911F910F911A
:100CF000FF90DF90CF9008951F93CF93DF931F92C3
:100D0000CDB7DEB7162F2091E80022FFFCCF612F70
:100D100079830E948B048BEF8093E800812F798187
:100D2000972F0F90DF91CF911F910895CF93DF936D
:100D30001F92CDB7DEB71982CE0101960E94F1084D
:100D4000CE0101960E943B04898190E00F90DF91D3
:100D5000CF9108951F920F920FB60F921124EF9228
:100D6000FF920F931F932F933F934F935F936F9334
:100D70007F938F939F93AF93BF93EF93FF93CF9303
:100D8000DF93CDB7DEB76297DEBFCDBF1092E9002B
:100D90008091E80083FF0CC168E0CE010A960E94B2
:100DA0008B0482EF8093E8009A8597FF05C08091BD
:100DB000E80080FFFCCF03C08EEF8093E800892F0E
:100DC000807609F0DAC08B854D855C8581110CC079
:100DD000903829F480913F018093F10002C0109275
:100DE000F1001092F100DDC0042F10E0302F222717
:100DF000252B813051F49111D4C02130310509F0F7
:100E0000D0C080913F018D7F0BC0833061F4911180
:100E1000C8C02130310509F0C4C080913F01826013
:100E200080933F01BEC0853041F48091E80080FF8F
:100E3000FCCF50685093E300B4C0863009F075C011
:100E4000E888F988423071F580E090E04A8B0E9492
:100E500040060E94960699E08E010F5F1F4FF80131
:100E6000292F11922A95E9F799834A894A8391E0BB
:100E70009E8390EA98879AEF998720913C01309160
:100E80003D01275F3F4F3C832B838D83C7010E9429
:100E9000400649E050E0B80180E00E944B060E9405
:100EA00096067FC0C7014A8B0E9440064A8942329B
:100EB00039F4C8010E944604892B09F072C075C03C
:100EC000413071F488899989089719F481E08093F9
:100ED000390180913901811118C06AED71E01AC0A1
:100EE000433009F062C08C85882391F0823021F470
:100EF00060E188EF91E006C0813009F056C06BE0F8
:100F00008CEE91E00E94C6044AC068EC71E002C019
:100F100069E072E06115710509F447C0FB01449175
:100F200050E080E80E944B063CC0873009F43DC089
:100F3000883021F481E08093F10033C0893089F555
:100F4000937099F5E4ECF1E081E021E096E3809381
:100F5000E9002093EB0034913093EC009093ED0086
:100F60008F5F3196853099F78EE78093EA00109273
:100F7000EA008C858093400114C0888999890E9479
:100F800040068E85811105C0CE010A960E94FE089A
:100F900006C0823051F4CE010A960E946E04882366
:100FA00021F08EEF8093E80003C081E28093EB0094
:100FB00062960FB6F894DEBF0FBECDBFDF91CF9122
:100FC000FF91EF91BF91AF919F918F917F916F9121
:100FD0005F914F913F912F911F910F91FF90EF9053
:100FE0000F900FBE0F901F9018958093E90080918D
:100FF000F200882319F08AE38093E80008951F9295
:101000000F920FB60F9211242F933F934F935F933C
:101010006F937F938F939F93AF93BF93CF93EF93F0
:10102000FF93C091E1008091E100837F8093E10014
:10103000C3FF0FC01092E90081E08093EB00109293
:10104000EC0082E38093ED001092400188E08093F1
:10105000F000C2FF19C083E00E94F50780914201B1
:10106000882339F080914201815080934201882386
:1010700089F180914101882339F0809141018150AB
:1010800080934101882341F1C4FF10C08091E200A8
:101090008E7E81608093E2008091E1008F7E80935C
:1010A000E10080913E018E7E806111C0C0FF16C0BC
:1010B0008091E2008E7E80618093E2008091E10069
:1010C0008E7E8093E10080913E018E7E81608093D0
:1010D0003E0104C05D9ACDCF289AD6CFFF91EF9103
:1010E000CF91BF91AF919F918F917F916F915F91C0
:1010F0004F913F912F910F900FBE0F901F90189519
:101100001092400110923F0110923E010E94FC0497
:10111000E1EEF0E080818E7E80838DE08093E200BE
:10112000559A209A08950895CF93DF931F92CDB7D3
:10113000DEB76983DC01ED91FC910280F381E02D43
:1011400041E050E0BE016F5F7F4F09950F90DF9146
:10115000CF910895CF93DF93EC018C859D8597FF08
:1011600005C082E00E947F059D878C878C859D85C8
:10117000DF91CF91089583E00C94F507FC018485FD
:10118000958597FD06C082E00E94270590E00196B4
:10119000089582E00E94270590E00895FC0184856F
:1011A000958597FD05C02FEF3FEF3587248708957C
:1011B00082E00C947F05CF93DF93EC0180910A01CC
:1011C000882331F083E00E94B0051816190634F028
:1011D00081E090E09B838A8380E090E0DF91CF9173
:1011E0000895FC0120812E5F208342E450E06DE0F1
:1011F00072E080E80C944B0608950895FC0181810B
:101200009081913A59F4813209F040C047E050E0B2
:1012100063E071E080E00E944B0647C09132B1F577
:10122000803249F467E070E083E091E00E947C0640
:101230000E94FC0808C0823209F037C08281809386
:101240000A010E94FD088091030190910401A09180
:101250000501B0910601803B9440A105B105C1F4A0
:1012600080910A0180FD14C087E797E790930108F9
:10127000809300082BE088E190E00FB6F894A895E1
:10128000809360000FBE209360000FC080E008953F
:1012900088E10FB6F89480936000109260000FBE52
:1012A000A895109201081092000881E0089510920C
:1012B00046011092450188EE93E0A0E0B0E08093F3
:1012C000470190934801A0934901B0934A018FE0F0
:1012D00091E090934401809343018FEF9FEF9093AF
:1012E000500180934F010895EE0FFF1F0590F49178
:0812F000E02D0994F894FFCFF2
:1012F80001010100E100000000000000000000946E
:0C13080008DB08BE08CE08AA08BB0800DD
:00000001FF
